{
  "address": "0x36F9e78Aa9012FF2Df8923074DE3fa52075EFDcb",
  "abi": [
    {
      "inputs": [
        {
          "internalType": "address",
          "name": "_masterChefV2",
          "type": "address"
        },
        {
          "internalType": "contract IERC20",
          "name": "_vspToken",
          "type": "address"
        },
        {
          "internalType": "uint256",
          "name": "_rewardPerSecond",
          "type": "uint256"
        },
        {
          "internalType": "contract IERC20",
          "name": "_lpToken",
          "type": "address"
        }
      ],
      "stateMutability": "nonpayable",
      "type": "constructor"
    },
    {
      "anonymous": false,
      "inputs": [
        {
          "indexed": true,
          "internalType": "address",
          "name": "user",
          "type": "address"
        },
        {
          "indexed": true,
          "internalType": "uint256",
          "name": "pid",
          "type": "uint256"
        },
        {
          "indexed": false,
          "internalType": "uint256",
          "name": "amount",
          "type": "uint256"
        },
        {
          "indexed": true,
          "internalType": "address",
          "name": "to",
          "type": "address"
        }
      ],
      "name": "OnRewardCalled",
      "type": "event"
    },
    {
      "anonymous": false,
      "inputs": [
        {
          "indexed": true,
          "internalType": "address",
          "name": "previousOwner",
          "type": "address"
        },
        {
          "indexed": true,
          "internalType": "address",
          "name": "newOwner",
          "type": "address"
        }
      ],
      "name": "OwnershipTransferred",
      "type": "event"
    },
    {
      "anonymous": false,
      "inputs": [
        {
          "indexed": false,
          "internalType": "uint256",
          "name": "lastRewardTime",
          "type": "uint256"
        },
        {
          "indexed": false,
          "internalType": "uint256",
          "name": "lpSupply",
          "type": "uint256"
        },
        {
          "indexed": false,
          "internalType": "uint256",
          "name": "accVspPerShare",
          "type": "uint256"
        }
      ],
      "name": "PoolInfoUpdated",
      "type": "event"
    },
    {
      "anonymous": false,
      "inputs": [
        {
          "indexed": false,
          "internalType": "uint256",
          "name": "rewardPerSecond",
          "type": "uint256"
        }
      ],
      "name": "RewardPerSecondUpdated",
      "type": "event"
    },
    {
      "inputs": [],
      "name": "lpToken",
      "outputs": [
        {
          "internalType": "contract IERC20",
          "name": "",
          "type": "address"
        }
      ],
      "stateMutability": "view",
      "type": "function"
    },
    {
      "inputs": [],
      "name": "masterChefV2",
      "outputs": [
        {
          "internalType": "address",
          "name": "",
          "type": "address"
        }
      ],
      "stateMutability": "view",
      "type": "function"
    },
    {
      "inputs": [
        {
          "internalType": "uint256",
          "name": "_pid",
          "type": "uint256"
        },
        {
          "internalType": "address",
          "name": "_user",
          "type": "address"
        },
        {
          "internalType": "address",
          "name": "_recipient",
          "type": "address"
        },
        {
          "internalType": "uint256",
          "name": "",
          "type": "uint256"
        },
        {
          "internalType": "uint256",
          "name": "_updateLpAmount",
          "type": "uint256"
        }
      ],
      "name": "onSushiReward",
      "outputs": [],
      "stateMutability": "nonpayable",
      "type": "function"
    },
    {
      "inputs": [],
      "name": "owner",
      "outputs": [
        {
          "internalType": "address",
          "name": "",
          "type": "address"
        }
      ],
      "stateMutability": "view",
      "type": "function"
    },
    {
      "inputs": [
        {
          "internalType": "address",
          "name": "_user",
          "type": "address"
        }
      ],
      "name": "pendingToken",
      "outputs": [
        {
          "internalType": "uint256",
          "name": "_pending",
          "type": "uint256"
        }
      ],
      "stateMutability": "view",
      "type": "function"
    },
    {
      "inputs": [
        {
          "internalType": "uint256",
          "name": "",
          "type": "uint256"
        },
        {
          "internalType": "address",
          "name": "user",
          "type": "address"
        },
        {
          "internalType": "uint256",
          "name": "",
          "type": "uint256"
        }
      ],
      "name": "pendingTokens",
      "outputs": [
        {
          "internalType": "contract IERC20[]",
          "name": "_rewardTokens",
          "type": "address[]"
        },
        {
          "internalType": "uint256[]",
          "name": "_rewardAmounts",
          "type": "uint256[]"
        }
      ],
      "stateMutability": "view",
      "type": "function"
    },
    {
      "inputs": [],
      "name": "poolInfo",
      "outputs": [
        {
          "internalType": "uint256",
          "name": "accVspPerShare",
          "type": "uint256"
        },
        {
          "internalType": "uint256",
          "name": "lastRewardTime",
          "type": "uint256"
        }
      ],
      "stateMutability": "view",
      "type": "function"
    },
    {
      "inputs": [],
      "name": "renounceOwnership",
      "outputs": [],
      "stateMutability": "nonpayable",
      "type": "function"
    },
    {
      "inputs": [],
      "name": "rewardPerSecond",
      "outputs": [
        {
          "internalType": "uint256",
          "name": "",
          "type": "uint256"
        }
      ],
      "stateMutability": "view",
      "type": "function"
    },
    {
      "inputs": [
        {
          "internalType": "address",
          "name": "newOwner",
          "type": "address"
        }
      ],
      "name": "transferOwnership",
      "outputs": [],
      "stateMutability": "nonpayable",
      "type": "function"
    },
    {
      "inputs": [
        {
          "internalType": "uint256",
          "name": "_rewardPerSecond",
          "type": "uint256"
        }
      ],
      "name": "updateRewardPerSecond",
      "outputs": [],
      "stateMutability": "nonpayable",
      "type": "function"
    },
    {
      "inputs": [
        {
          "internalType": "address",
          "name": "",
          "type": "address"
        }
      ],
      "name": "userInfo",
      "outputs": [
        {
          "internalType": "uint256",
          "name": "lpAmount",
          "type": "uint256"
        },
        {
          "internalType": "uint256",
          "name": "rewardDebt",
          "type": "uint256"
        },
        {
          "internalType": "uint256",
          "name": "unpaidRewards",
          "type": "uint256"
        }
      ],
      "stateMutability": "view",
      "type": "function"
    },
    {
      "inputs": [],
      "name": "vspToken",
      "outputs": [
        {
          "internalType": "contract IERC20",
          "name": "",
          "type": "address"
        }
      ],
      "stateMutability": "view",
      "type": "function"
    }
  ],
  "transactionHash": "0xb66e604852be4687f9d6816d3a6e8fbd406db24f9962ec1c2f22f0e916fc4933",
  "args": [
    "0xef0881ec094552b2e128cf945ef17a6752b4ec5d",
    "0x1b40183efb4dd766f11bda7a7c3ad8982e998421",
    "13227513227513227",
    "0x132eEb05d5CB6829Bd34F552cDe0b6b708eF5014"
  ],
  "solcInputHash": "0629928d6b0fcc26c6e3c35252eb0de2",
  "bytecode": "0x60e060405234801561001057600080fd5b506040516200122e3803806200122e833981016040819052610031916100b7565b61003a33610067565b6001600160601b0319606094851b811660c05292841b831660805260049190915590911b1660a052610123565b600080546001600160a01b038381166001600160a01b0319831681178455604051919092169283917f8be0079c531659141344cd1fd0a4f28419497f9722a3daafe3b4186f6b6457e09190a35050565b600080600080608085870312156100cc578384fd5b84516100d78161010b565b60208601519094506100e88161010b565b6040860151606087015191945092506101008161010b565b939692955090935050565b6001600160a01b038116811461012057600080fd5b50565b60805160601c60a05160601c60c05160601c611085620001a96000396000818161020901528181610321015281816103bb015281816104de01526109bb015260008181610160015281816103910152818161052901526109e60152600081816101e20152818161061c015281816106ad015281816106f501526107f801526110856000f3fe608060405234801561001057600080fd5b50600436106100cf5760003560e01c80638da5cb5b1161008c578063cd00955411610066578063cd00955414610204578063cde10ca01461022b578063d63b3c491461023e578063f2fde38b1461025f57600080fd5b80638da5cb5b146101b55780638f10369a146101c6578063baa7f00e146101dd57600080fd5b80631959a002146100d45780634004c8e7146101235780635a2f3d09146101385780635fcbd2851461015b578063715018a61461019a5780638bf63742146101a2575b600080fd5b6101036100e2366004610d6f565b60036020526000908152604090208054600182015460029092015490919083565b604080519384526020840192909252908201526060015b60405180910390f35b610136610131366004610dc7565b610272565b005b600154600254610146919082565b6040805192835260208301919091520161011a565b6101827f000000000000000000000000000000000000000000000000000000000000000081565b6040516001600160a01b03909116815260200161011a565b6101366102e0565b6101366101b0366004610df7565b610316565b6000546001600160a01b0316610182565b6101cf60045481565b60405190815260200161011a565b6101827f000000000000000000000000000000000000000000000000000000000000000081565b6101827f000000000000000000000000000000000000000000000000000000000000000081565b6101cf610239366004610d6f565b6107b3565b61025161024c366004610e48565b6107d1565b60405161011a929190610e9b565b61013661026d366004610d6f565b6108ac565b6000546001600160a01b031633146102a55760405162461bcd60e51b815260040161029c90610f51565b60405180910390fd5b60048190556040518181527f951c6f64eb06ec6a6682072cda71420984dd55199006684bb820a80fd7e987939060200160405180910390a150565b6000546001600160a01b0316331461030a5760405162461bcd60e51b815260040161029c90610f51565b6103146000610947565b565b336001600160a01b037f0000000000000000000000000000000000000000000000000000000000000000161461038e5760405162461bcd60e51b815260206004820152601b60248201527f63616c6c65722d69732d6e6f742d6d6173746572636865662d76320000000000604482015260640161029c565b847f00000000000000000000000000000000000000000000000000000000000000006001600160a01b03167f00000000000000000000000000000000000000000000000000000000000000006001600160a01b03166378ed5d1f836040518263ffffffff1660e01b815260040161040791815260200190565b60206040518083038186803b15801561041f57600080fd5b505afa158015610433573d6000803e3d6000fd5b505050506040513d601f19601f820116820180604052508101906104579190610dab565b6001600160a01b03161461049b5760405162461bcd60e51b815260206004820152600b60248201526a1a5b9d985b1a590b5c1a5960aa1b604482015260640161029c565b6002544211156105c85760006104af610997565b60015490915081146104c15760018190555b4260028190556040516370a0823160e01b81526001600160a01b037f0000000000000000000000000000000000000000000000000000000000000000811660048301527f8e7098c0ca09f70c40fa51981337305ee84c660e96f4e6848edc7a177dda2efc92917f0000000000000000000000000000000000000000000000000000000000000000909116906370a082319060240160206040518083038186803b15801561056d57600080fd5b505afa158015610581573d6000803e3d6000fd5b505050506040513d601f19601f820116820180604052508101906105a59190610ddf565b6001546040805193845260208401929092529082015260600160405180910390a1505b6001600160a01b0385166000908152600360205260408120805490919015610726576105f987600160000154610abf565b6040516370a0823160e01b81523060048201529091506000906001600160a01b037f000000000000000000000000000000000000000000000000000000000000000016906370a082319060240160206040518083038186803b15801561065e57600080fd5b505afa158015610672573d6000803e3d6000fd5b505050506040513d601f19601f820116820180604052508101906106969190610ddf565b9050808211156106e8576106d46001600160a01b037f0000000000000000000000000000000000000000000000000000000000000000168883610b3b565b6106de8183610fdd565b6002840155610724565b61071c6001600160a01b037f0000000000000000000000000000000000000000000000000000000000000000168884610b3b565b600060028401555b505b838255600154670de0b6b3a7640000906107409086610fbe565b61074a9190610f9e565b8260010181905550856001600160a01b031688886001600160a01b03167fdc8defcf022366749bc8b0290ea678535b1b17d0c19d715d2a82b7ac337c6d528560020154856107989190610fdd565b60405190815260200160405180910390a45050505050505050565b6000806107be610997565b90506107ca8382610abf565b9392505050565b604080516001808252818301909252606091829190602080830190803683370190505091507f00000000000000000000000000000000000000000000000000000000000000008260008151811061083857634e487b7160e01b600052603260045260246000fd5b6001600160a01b0392909216602092830291909101820152604080516001808252818301909252918281019080368337019050509050610877846107b3565b8160008151811061089857634e487b7160e01b600052603260045260246000fd5b602002602001018181525050935093915050565b6000546001600160a01b031633146108d65760405162461bcd60e51b815260040161029c90610f51565b6001600160a01b03811661093b5760405162461bcd60e51b815260206004820152602660248201527f4f776e61626c653a206e6577206f776e657220697320746865207a65726f206160448201526564647265737360d01b606482015260840161029c565b61094481610947565b50565b600080546001600160a01b038381166001600160a01b0319831681178455604051919092169283917f8be0079c531659141344cd1fd0a4f28419497f9722a3daafe3b4186f6b6457e09190a35050565b600154600254421115610abc576040516370a0823160e01b81526001600160a01b037f0000000000000000000000000000000000000000000000000000000000000000811660048301526000917f0000000000000000000000000000000000000000000000000000000000000000909116906370a082319060240160206040518083038186803b158015610a2a57600080fd5b505afa158015610a3e573d6000803e3d6000fd5b505050506040513d601f19601f82011682018060405250810190610a629190610ddf565b90508015610aba57600254600090610a7a9042610fdd565b9050600060045482610a8c9190610fbe565b905082610aa182670de0b6b3a7640000610fbe565b610aab9190610f9e565b610ab59085610f86565b935050505b505b90565b6001600160a01b03821660009081526003602090815260408083208151606081018352815480825260018301549482018590526002909201549281018390529290670de0b6b3a764000090610b15908790610fbe565b610b1f9190610f9e565b610b299190610fdd565b610b339190610f86565b949350505050565b604080516001600160a01b038416602482015260448082018490528251808303909101815260649091019091526020810180516001600160e01b031663a9059cbb60e01b179052610b8d908490610b92565b505050565b6000610be7826040518060400160405280602081526020017f5361666545524332303a206c6f772d6c6576656c2063616c6c206661696c6564815250856001600160a01b0316610c649092919063ffffffff16565b805190915015610b8d5780806020019051810190610c059190610d8b565b610b8d5760405162461bcd60e51b815260206004820152602a60248201527f5361666545524332303a204552433230206f7065726174696f6e20646964206e6044820152691bdd081cdd58d8d9595960b21b606482015260840161029c565b6060610b33848460008585843b610cbd5760405162461bcd60e51b815260206004820152601d60248201527f416464726573733a2063616c6c20746f206e6f6e2d636f6e7472616374000000604482015260640161029c565b600080866001600160a01b03168587604051610cd99190610e7f565b60006040518083038185875af1925050503d8060008114610d16576040519150601f19603f3d011682016040523d82523d6000602084013e610d1b565b606091505b5091509150610d2b828286610d36565b979650505050505050565b60608315610d455750816107ca565b825115610d555782518084602001fd5b8160405162461bcd60e51b815260040161029c9190610f1e565b600060208284031215610d80578081fd5b81356107ca8161103a565b600060208284031215610d9c578081fd5b815180151581146107ca578182fd5b600060208284031215610dbc578081fd5b81516107ca8161103a565b600060208284031215610dd8578081fd5b5035919050565b600060208284031215610df0578081fd5b5051919050565b600080600080600060a08688031215610e0e578081fd5b853594506020860135610e208161103a565b93506040860135610e308161103a565b94979396509394606081013594506080013592915050565b600080600060608486031215610e5c578283fd5b833592506020840135610e6e8161103a565b929592945050506040919091013590565b60008251610e91818460208701610ff4565b9190910192915050565b604080825283519082018190526000906020906060840190828701845b82811015610edd5781516001600160a01b031684529284019290840190600101610eb8565b50505083810382850152845180825285830191830190845b81811015610f1157835183529284019291840191600101610ef5565b5090979650505050505050565b6020815260008251806020840152610f3d816040850160208701610ff4565b601f01601f19169190910160400192915050565b6020808252818101527f4f776e61626c653a2063616c6c6572206973206e6f7420746865206f776e6572604082015260600190565b60008219821115610f9957610f99611024565b500190565b600082610fb957634e487b7160e01b81526012600452602481fd5b500490565b6000816000190483118215151615610fd857610fd8611024565b500290565b600082821015610fef57610fef611024565b500390565b60005b8381101561100f578181015183820152602001610ff7565b8381111561101e576000848401525b50505050565b634e487b7160e01b600052601160045260246000fd5b6001600160a01b038116811461094457600080fdfea2646970667358221220bab930c76b5bdac29c416274c26067215e0208db1ffd13e36ca5ee207ca2c99964736f6c63430008040033",
  "devdoc": {
    "kind": "dev",
    "methods": {
      "onSushiReward(uint256,address,address,uint256,uint256)": {
        "details": "Inherited from IRewarder"
      },
      "owner()": {
        "details": "Returns the address of the current owner."
      },
      "pendingTokens(uint256,address,uint256)": {
        "details": "Inherited from IRewarder"
      },
      "renounceOwnership()": {
        "details": "Leaves the contract without owner. It will not be possible to call `onlyOwner` functions anymore. Can only be called by the current owner. NOTE: Renouncing ownership will leave the contract without an owner, thereby removing any functionality that is only available to the owner."
      },
      "transferOwnership(address)": {
        "details": "Transfers ownership of the contract to a new account (`newOwner`). Can only be called by the current owner."
      },
      "updateRewardPerSecond(uint256)": {
        "details": "Only owner can call this"
      }
    },
    "title": "Vesper's double incentive Sushi pool rewarder contract",
    "version": 1
  },
  "userdoc": {
    "events": {
      "OnRewardCalled(address,uint256,uint256,address)": {
        "notice": "Emitted when `onSushiReward` function is called"
      },
      "PoolInfoUpdated(uint256,uint256,uint256)": {
        "notice": "Emitted when pool info is updated"
      },
      "RewardPerSecondUpdated(uint256)": {
        "notice": "Emitted when rewardPerSecond is updated"
      }
    },
    "kind": "user",
    "methods": {
      "onSushiReward(uint256,address,address,uint256,uint256)": {
        "notice": "Trigger function called by the MasterChefV2 contract that will send VSP rewards to the user"
      },
      "pendingToken(address)": {
        "notice": "Check pending rewards for a given user"
      },
      "pendingTokens(uint256,address,uint256)": {
        "notice": "Check pending rewards for a given user"
      },
      "updateRewardPerSecond(uint256)": {
        "notice": "Update the amount of VSP distribuited per second"
      }
    },
    "version": 1
  },
  "storageLayout": {
    "storage": [
      {
        "astId": 7,
        "contract": "contracts/VesperRewarder.sol:VesperRewarder",
        "label": "_owner",
        "offset": 0,
        "slot": "0",
        "type": "t_address"
      },
      {
        "astId": 754,
        "contract": "contracts/VesperRewarder.sol:VesperRewarder",
        "label": "poolInfo",
        "offset": 0,
        "slot": "1",
        "type": "t_struct(PoolInfo)751_storage"
      },
      {
        "astId": 759,
        "contract": "contracts/VesperRewarder.sol:VesperRewarder",
        "label": "userInfo",
        "offset": 0,
        "slot": "3",
        "type": "t_mapping(t_address,t_struct(UserInfo)746_storage)"
      },
      {
        "astId": 769,
        "contract": "contracts/VesperRewarder.sol:VesperRewarder",
        "label": "rewardPerSecond",
        "offset": 0,
        "slot": "4",
        "type": "t_uint256"
      }
    ],
    "types": {
      "t_address": {
        "encoding": "inplace",
        "label": "address",
        "numberOfBytes": "20"
      },
      "t_mapping(t_address,t_struct(UserInfo)746_storage)": {
        "encoding": "mapping",
        "key": "t_address",
        "label": "mapping(address => struct VesperRewarder.UserInfo)",
        "numberOfBytes": "32",
        "value": "t_struct(UserInfo)746_storage"
      },
      "t_struct(PoolInfo)751_storage": {
        "encoding": "inplace",
        "label": "struct VesperRewarder.PoolInfo",
        "members": [
          {
            "astId": 748,
            "contract": "contracts/VesperRewarder.sol:VesperRewarder",
            "label": "accVspPerShare",
            "offset": 0,
            "slot": "0",
            "type": "t_uint256"
          },
          {
            "astId": 750,
            "contract": "contracts/VesperRewarder.sol:VesperRewarder",
            "label": "lastRewardTime",
            "offset": 0,
            "slot": "1",
            "type": "t_uint256"
          }
        ],
        "numberOfBytes": "64"
      },
      "t_struct(UserInfo)746_storage": {
        "encoding": "inplace",
        "label": "struct VesperRewarder.UserInfo",
        "members": [
          {
            "astId": 741,
            "contract": "contracts/VesperRewarder.sol:VesperRewarder",
            "label": "lpAmount",
            "offset": 0,
            "slot": "0",
            "type": "t_uint256"
          },
          {
            "astId": 743,
            "contract": "contracts/VesperRewarder.sol:VesperRewarder",
            "label": "rewardDebt",
            "offset": 0,
            "slot": "1",
            "type": "t_uint256"
          },
          {
            "astId": 745,
            "contract": "contracts/VesperRewarder.sol:VesperRewarder",
            "label": "unpaidRewards",
            "offset": 0,
            "slot": "2",
            "type": "t_uint256"
          }
        ],
        "numberOfBytes": "96"
      },
      "t_uint256": {
        "encoding": "inplace",
        "label": "uint256",
        "numberOfBytes": "32"
      }
    }
  }
}